:100000000C945D000C9485000C9485000C94850084
:100010000C9485000C9485000C9485000C9485004C
:100020000C9485000C9485000C9485000C9485003C
:100030000C9485000C9485000C9485000C9485002C
:100040000C9458040C9485000C9485000C94850045
:100050000C9485000C9485000C9485000C9485000C
:100060000C94A2040C94850000000008000201001A
:100070000003040700000000000000000000000072
:10008000250028002B0000000000240027002A0083
:10009000040404040404040402020202020203032E
:1000A0000303030301020408102040800102040836
:1000B0001020010204081020C10511241FBECFEF3B
:1000C000D8E0DEBFCDBF11E0A0E0B1E0E0E2FFE0AC
:1000D00002C005900D92AE35B107D9F722E0AEE52A
:1000E000B1E001C01D92A933B207E1F710E0CDE500
:1000F000D0E004C02197FE010E948807CC35D107CB
:10010000C9F70E94E1050C948E070C94000090E062
:10011000FC01EC55FF4F249180579F4FFC018491C7
:10012000882399F090E0880F991FFC01EA57FF4F50
:10013000A591B491FC01E458FF4F859194918FB73C
:10014000F894EC91E22BEC938FBF089590E0FC01C2
:10015000E859FF4F2491FC01EC55FF4F3491FC010D
:10016000E057FF4FE491EE23C9F0222339F023300A
:1001700001F1A8F4213019F1223029F1F0E0EE0F5D
:10018000FF1FE458FF4FA591B4918FB7F894EC91FD
:10019000611126C030953E233C938FBF08952730D0
:1001A000A9F02830C9F0243049F7809180008F7D74
:1001B00003C0809180008F7780938000DFCF84B56B
:1001C0008F7784BDDBCF84B58F7DFBCF8091B0006E
:1001D0008F778093B000D2CF8091B0008F7DF9CF20
:1001E0003E2BDACF1F93CF93DF93182FEB010E94A2
:1001F0008700209739F460E0812FDF91CF911F9124
:100200000C94A600CF3FD10511F461E0F5CFE12FAA
:10021000F0E0E859FF4FE491E33031F140F4E13090
:10022000B1F0E230E1F0C038D1057CF7E4CFE7303F
:1002300029F1E83059F1E430B1F780918000806213
:1002400080938000D0938B00C0938A0004C084B553
:10025000806884BDC7BDDF91CF911F91089584B59B
:10026000806284BDC8BDF7CF809180008068809394
:100270008000D0938900C0938800EDCF8091B000BA
:1002800080688093B000C093B300E5CF8091B00048
:1002900080628093B000C093B400DDCF3FB7F89484
:1002A00080911D0290911E02A0911F02B091200228
:1002B00026B5A89B05C02F3F19F00196A11DB11DC1
:1002C0003FBFBA2FA92F982F8827BC01CD01620FFD
:1002D000711D811D911D42E0660F771F881F991FB8
:1002E0004A95D1F708958F929F92AF92BF92CF9285
:1002F000DF92EF92FF924B015C010E944E016B0175
:100300007C010E944E016C197D098E099F09683E8F
:10031000734081059105A8F321E0821A9108A10894
:10032000B10888EEC80E83E0D81EE11CF11C8114D0
:100330009104A104B10429F7FF90EF90DF90CF90D2
:10034000BF90AF909F908F90089508950895AF92B9
:10035000BF92CF92DF92EF92FF920F931F93CF93B2
:10036000DF936C017B018B01040F151FEB015E0114
:10037000AE18BF08C017D10759F06991D601ED91A9
:10038000FC910190F081E02DC6010995892B79F748
:10039000C501DF91CF911F910F91FF90EF90DF90FA
:1003A000CF90BF90AF9008952091C601260F3327BC
:1003B000331F21323105ECF42091EA01FC0190E079
:1003C00080E0243069F082E00895A091C601219177
:1003D000AC014A555E4FA40FB52FB11D2C93019669
:1003E000861798F38091C601680F6093C60180E07C
:1003F000089581E008951092EA0181E08093EC0174
:100400001092EB0161E082E10E94A60061E083E1CD
:100410000E94A600E9EBF0E080818E7F80838081DE
:100420008D7F808388E48093B80085E48093BC004E
:100430000895CF93DF9391E09093A5018823B9F0BD
:10044000C091B800D091BA008091BC008A7B8093A3
:10045000BC0060E082E10E94A60060E083E10E94AF
:10046000A6000E94FB01D093BA00C093B800DF91B0
:10047000CF9108950895E091170280911602E81730
:1004800030F4F0E0E058FE4F808190E008958FEF67
:100490009FEF089590911702809116022FEF3FEF82
:1004A000981748F4E92FF0E0E058FE4F208130E043
:1004B0009F5F90931702C901089580911602909151
:1004C0001702891B990B0895CF92DF92EF92FF924A
:1004D0000F931F93CF93DF937C01CB018A0120916F
:1004E0007F01222389F0EB016B01C40ED51ECC15D0
:1004F000DD0569F06991D701ED91FC910190F081E2
:10050000E02DC7010995F3CF642F0E94D401C801E3
:10051000DF91CF911F910F91FF90EF90DF90CF90DF
:100520000895CF93DF931F92CDB7DEB769832091F3
:100530007F012223F9F020911402203258F021E0AB
:1005400030E0FC013383228390E080E00F90DF9164
:10055000CF91089580911502E82FF0E0E15AFE4F07
:10056000998190838F5F809315028093140281E0BC
:1005700090E0ECCF61E0CE0101960E94D401F7CF6C
:10058000CF92DF92EF92FF920F931F93CF93DF935F
:10059000FC01C48121E020937F01C0935E01109291
:1005A0001502109214028385682B81E292E00E946A
:1005B0009102D0911402D13208F092C00E944E01F3
:1005C0006B017C018091EA01811165C082E080931A
:1005D000EA0181E08093EC018FEF8093E9011092B2
:1005E0000E02D0930D02AFE5B1E0EDEEF1E080E058
:1005F000D81385C010920F0280910F02CC0FC82B28
:10060000C0930F028091EB01813009F07CC0109201
:10061000EB010E944E016B017C0180910F028093DF
:10062000BB008091A1019091A201A091A301B09182
:10063000A401892B8A2B8B2B99F00E944E010091EB
:10064000A1011091A2012091A3013091A4016C1984
:100650007D098E099F090617170728073907E0F15A
:100660008091BC0083FDD9CF85EC8093BC000E94B3
:100670004E016B017C018091EA01823009F445C092
:100680008091E9018F3F61F18091E901803241F170
:100690008091E90125C08091A1019091A201A091D2
:1006A000A301B091A401892B8A2B8B2B09F48ACF4B
:1006B0000E944E010091A1011091A2012091A3017D
:1006C0003091A4016C197D098E099F09061717073F
:1006D0002807390708F076CF8091A0010E941902FF
:1006E000109215021092140210927F01DF91CF91A7
:1006F0001F910F91FF90EF90DF90CF9008959D9103
:1007000091938F5F75CF85EEB0CF8091A1019091CD
:10071000A201A091A301B091A401892B8A2B8B2B5C
:1007200009F4A9CF0E944E010091A1011091A201EC
:100730002091A3013091A4016C197D098E099F09B4
:10074000061717072807390708F095CFC5CF089572
:1007500090E080E00895FC0101900020E9F73197D6
:10076000AF01481B590BBC018DE292E00C94A7012C
:1007700085ED8093BC008091A1019091A201A09190
:10078000A301B091A4010796A11DB11D23E0B69568
:10079000A795979587952A95D1F72091BC0024FDC0
:1007A00003C01092EA0108954091A1015091A20165
:1007B0006091A3017091A401452B462B472B69F34F
:1007C0000097A105B10541F02AE22A95F1F700C092
:1007D0000197A109B109E1CF8091A0010C94190200
:1007E0000F931F93CF938C01C62F0E94C0026C2FD2
:1007F0006460C8010E94C0026C2F6B7FC8010E9418
:10080000C00283EC90E00197F1F7CF911F910F9117
:1008100008950F931F93CF93DF938C01D62FC42F8E
:10082000607F642B0E94F00380E1D89FB001112407
:100830006C2BC801DF91CF911F910F910C94F003A5
:10084000CF93DF93CDB7DEB728970FB6F894DEBF0E
:100850000FBECDBF98E0E0E0F1E0DE01119601901F
:100860000D929A95E1F790913502981710F48FEF59
:10087000890F90E0880F991F21E030E02C0F3D1F79
:10088000820F931FFC016081606840E08DE292E07E
:1008900028960FB6F894DEBF0FBECDBFDF91CF9183
:1008A0000C94090441E00E94090481E090E008955D
:1008B0001F920F920FB60F9211242F933F938F9395
:1008C0009F93AF93BF938091190290911A02A091C8
:1008D0001B02B0911C023091180223E0230F2D3728
:1008E00058F50196A11DB11D20931802809319029D
:1008F00090931A02A0931B02B0931C0280911D02D8
:1009000090911E02A0911F02B09120020196A11D9C
:10091000B11D80931D0290931E02A0931F02B093FD
:100920002002BF91AF919F918F913F912F910F9096
:100930000FBE0F901F90189526E8230F0296A11D59
:10094000B11DD2CF1F920F920FB60F9211242F9389
:100950003F934F935F936F937F938F939F93AF9347
:10096000BF93EF93FF938091B900887F803609F49D
:100970004AC0F0F5883209F4A7C018F5803109F4AF
:100980009BC0B8F4882309F4F9C0883009F494C0F6
:10099000FF91EF91BF91AF919F918F917F916F9157
:1009A0005F914F913F912F910F900FBE0F901F902D
:1009B0001895883109F488C0803251F78093E90195
:1009C00014C0803409F49DC040F48033B9F38833F7
:1009D000F9F68093E90185ECB0C0803509F485C053
:1009E000883509F496C0883499F60E94B803D0CFB0
:1009F000883909F48CC038F5883729F050F48836E6
:100A000011F0803729F683E08093EA011092E80123
:100A100057C0883809F47BC0803919F0803809F054
:100A2000B7CF8091E801803208F071C0E091E80111
:100A300081E08E0F8093E8018091BB00F0E0E853E5
:100A4000FE4F80833DC0803B39F0E0F4803A09F4EA
:100A500079C0883A09F09CCF84E08093EA01109233
:100A6000C7011092C601E0911202F091130209959C
:100A70008091C60181110FC081E08093C601109260
:100A8000A60109C0803C09F4A6CF883C09F4A3CF95
:100A9000883B09F07DCFE091C70181E08E0F809304
:100AA000C701F0E0EA55FE4F80818093BB00909132
:100AB000C7018091C60129C080910F028093BB00BD
:100AC00085EC8093BC0064CF90910E0280910D0262
:100AD000981758F5E0910E0281E08E0F80930E0278
:100AE000F0E0E351FE4F8081E9CFE0910E0281E01A
:100AF0008E0F80930E028091BB00F0E0E351FE4F19
:100B0000808390910E0280910D029817C8F285E8BB
:100B1000D8CFE0910E0281E08E0F80930E0280917B
:100B2000BB00F0E0E351FE4F80838091EC01811126
:100B30005CCF81E08093EB0184EA8093BC0010924B
:100B4000EA0126CF85EC8093BC001092EA018091E7
:100B5000E801803230F4E091E801F0E0E853FE4F24
:100B600010826091E80170E0E0911002F0911102B2
:100B700088EC91E009951092E8010ACF1092E90102
:100B800034CFE1E2F2E01382128288EE93E0A0E03B
:100B9000B0E084839583A683B7838CE091E0918352
:100BA0008083EDE2F2E0138212828EE191E0918384
:100BB000808387E2848384E1818784E0828713864F
:100BC0000895789484B5826084BD84B5816084BDC5
:100BD00085B5826085BD85B5816085BD80916E00DB
:100BE000816080936E00109281008091810082600C
:100BF0008093810080918100816080938100809149
:100C000080008160809380008091B1008460809337
:100C1000B1008091B00081608093B00080917A0033
:100C2000846080937A0080917A00826080937A0059
:100C300080917A00816080937A0080917A00806848
:100C400080937A001092C10010921702109216023F
:100C500010921502109214020E94FB0185EA91E0A5
:100C6000909313028093120286EA91E0909311020E
:100C7000809310021092320280913702823018F075
:100C800098E0909332028093350262E370E080E056
:100C900090E00E947301609138028DE292E00E9420
:100CA000C00268EE73E080E090E00E94730160E3B0
:100CB0008DE292E00E94F003CBE4D6E4CE010197EE
:100CC000F1F760E38DE292E00E94F0032197F1F7E3
:100CD00060E38DE292E00E94F00383E592E00197E9
:100CE000F1F760E28DE292E00E94F003609132023F
:100CF000606240E08DE292E00E94090484E080930B
:100D0000330240E06CE08DE292E00E94090440E092
:100D100061E08DE292E00E940904CBE3DFE1CE01C5
:100D20000197F1F782E08093340240E066E08DE2C3
:100D300092E00E94090440E062E08DE292E00E94AD
:100D400009042197F1F788E08093380260E08DE292
:100D500092E00E94C00286E291E00E94AB0381E033
:100D60000E94200484E391E00E94AB0382E00E9491
:100D7000200483E491E00E94AB0383E00E942004FE
:100D800085E591E00E94AB0389E00E94870084E042
:100D90000E94870088E00E94870087E00E94870009
:100DA00086E00E94870085E00E94870060E088E07E
:100DB0000E94A60060E087E00E94A60060E086E056
:100DC0000E94A60060E085E00E94A60000E010E01E
:100DD0006FEF70E089E00E94F2006FEF70E084E056
:100DE0000E94F20061E088E00E94A60060E087E0D7
:100DF0000E94A60061E086E00E94A60060E085E017
:100E00000E94A60060ED77E080E090E00E94730110
:100E100060E088E00E94A60061E087E00E94A600F2
:100E200060E086E00E94A60061E085E00E94A600E6
:100E300060ED77E080E090E00E94730160E088E080
:100E40000E94A60060E087E00E94A60060E086E0C5
:100E50000E94A60060E085E00E94A60068EE73E0B4
:100E600080E090E00E94730160E088E00E94A600AC
:100E700061E087E00E94A60060E086E00E94A60094
:100E800061E085E00E94A600D0E0C0E0BE0189E0FC
:100E90000E94F200BE0184E00E94F20064E170E072
:100EA00080E090E00E9473012196C11581E0D8078F
:100EB00069F7CFEFD0E0BE0189E00E94F200BE01E9
:100EC00084E00E94F20064E170E080E090E00E9423
:100ED0007301219780F760E088E00E94A60060E03F
:100EE00087E00E94A60060E086E00E94A60060E025
:100EF00085E00E94A60068EE73E080E090E00E942A
:100F000073010115110509F463CF0E94000060CF41
:100F1000EE0FFF1F0590F491E02D0994F894FFCF98
:100F20000000400014005400000000009102640220
:100F3000A8033A025D024A023B020000000052048C
:100F4000A701A803A70348656C6C6F2C2062756429
:100F50006479210057656C636F6D6520746F207430
:100F600068650051756172747A20436F6D706F6EA1
:0E0F7000656E74730066616D696C792E000009
:00000001FF
